:02000000372E99
:06000600000000000800EC
:10000C000F3083120313FC004730FD00FD0B0C284E
:0A001C00FC0B0C2800000000080097
:0E002600213083120313FD00FD0B1728080084
:1000340083160313D61B21288312871323288312C4
:1000440087178316561B2928831207132B2883121C
:1000540007178316D61A312883128712332883127E
:1000640087168316561A3928831207123B288312DF
:100074000716831644184128831207154328831250
:1000840007118715032087118316D6194C2883126C
:1000940087134E2883128717831656195428831200
:1000A40007135628831207178316D6185C28831261
:1000B40087125E28831287168316561864288312C3
:1000C4000712662883120716831644186C288312B5
:1000D40007156E28831207118715032087118316CD
:0C00E400441C7628062077281320080012
:1000F0008316031344105508D6001A20831644149F
:020100000800F5
:10010200710DF80DF90D7408F8027508031C750FCE
:10011200F902F00DF10D0F30FC00710DF80DF90D23
:100122007408701C9A28F8027508031C750FF902EE
:100132009F28F80775080318750FF907F00DF10DE0
:10014200FC0B8E287018AB287408F8077508031882
:08015200750FF9070000080019
:10015A000E3083120313FD00FD0BB12800000800C6
:0E016A00831603134A088A0049088200080021
:10017800831203137408003A031DCB287508003A4C
:10018800031DCB28FF30F0007F30F10024298312B3
:100198000313FD01F901F801710870040319003413
:1001A80071087506FA00FA1BFD09FB01F51FE12825
:1001B800F409F509F40A0319F50AF11FE828F0090A
:1001C800F109F00A0319F10A71087504FA00FA1B1B
:1001D800FD2881207B181029FD1F0034F009F10942
:1001E800F00A0319F10AF809F909F80A0319F90AD2
:1001F8000034F51F0C29F11B08297108F900700853
:10020800F800F101F001F028F101F001F00A0034E2
:10021800F109F009FB0AED28F80A0319F90A74082C
:100228007802031DF02875087902031DF028F901EA
:10023800F801F00A0319F10AF11FF0280000FF3451
:020248000800AC
:10024A003729803083160313D1004A29C030D100E0
:10025A004A299430D1004A29D430D1004A29803021
:10026A00D1004A29831603135108013A0319262992
:10027A005108023A03192B295108033A03192E2966
:10028A005108043A0319312934295203F00051085C
:10029A00F0077008D10044147008D6001A2083169B
:0E02AA0044105308D6001A208316441408008E
:1002B8006E29803083160313D1008129C030D10004
:1002C80081299430D1008129D430D100812980300E
:1002D800D1008129831603135108013A03195D29B6
:1002E8005108023A031962295108033A031965298A
:1002F8005108043A031968296B295203F000510880
:10030800F0077008D1007008D6001A208316441030
:10031800D401540853078400000803199B29540882
:10032800530784000008D5007820D40A8D29441486
:020338000800BB
:10033A00023083160313D1000130D2002A30D300D1
:10034A005C210330FC009730FD00FD0BAA29FC0B51
:10035A00AA29000000000230D1000230D200323057
:10036A00D3005C210330FC009730FD00FD0BBB2954
:10037A00FC0BBB29000000000230D1000330D20080
:10038A003430D3005C210330FC009730FD00FD0BB4
:10039A00CC29FC0BCC29000000000230D10004302B
:1003AA00D2003030D3005C210330FC009730FD00CE
:1003BA00FD0BDD29FC0BDD29000000000230D10015
:1003CA000530D2002C30D3005C210330FC0097307A
:1003DA00FD00FD0BEE29FC0BEE29000000000230A7
:1003EA00D1000630D2002E30D3005C210330FC004D
:1003FA009730FD00FD0BFF29FC0BFF2900000000D0
:10040A000230D1000730D2004E30D3005C210330D5
:10041A00FC009730FD00FD0B102AFC0B102A00008F
:10042A000000CD01CE0180304E06F000803070020F
:10043A00031D212A03304D0203185A2A0830CF001F
:10044A000030D00080305006F00080307002031D6A
:10045A00302A0B304F020318562A0C30D6001A20C5
:10046A0002308316D1004F08D2006430D3005C21D9
:10047A000830FB009D30FC000530FD00FD0B432ACF
:10048A00FC0B432AFB0B432A000000000230D10078
:10049A004F08D2006230D3005C21CF0A0319D00A78
:0C04AA00272ACD0A0319CE0A182A0800E0
:1004B600E83083120313F4000330F50083164D0869
:1004C600F0004E08F100BC2070088316C800023008
:1004D600D1000530D20030307007D30025212E30F0
:1004E600D50078206430F4000030F5004D08F000A7
:1004F6004E08F100BC200A30F4000030F500BC20A4
:100506007808F0007908F10070088316C8003030CA
:0E0516007007D50078205630D50078200800F8
:100524000C3083160313D6001A2001308316CF0033
:100534000030D00080305006F00080307002031D7F
:10054400A52A11304F020318B22A0130D1004F08F6
:10055400D2005E30D3005C21CF0A0319D00A9C2A52
:100564000130D1004D08D2006030D3005C21CD0AA7
:100574000319CE0A0130D1004D08D2006630D300F1
:100584005C21CD0A0319CE0A0130D1004D08D200F6
:100594006E30D3005C21CD0A0319CE0A0130D1009C
:1005A4004D08D200A030D3005C21CD0A0319CE0A35
:1005B4000130D1004D08D2006C30D3005C21CD0A4B
:1005C4000319CE0A0130D1004D08D2006830D3009F
:1005D4005C21CD0A0319CE0A0130D1004D08D200A6
:1005E4006A30D3005C21CD0A0319CE0A0130D10050
:1005F4004D08D2005C30D3005C21CD0A0319CE0A29
:100604000130D1004D08D2005630D3005C21CD0A10
:100614000319CE0A0130D1004D08D2005830D3005E
:100624005C21CD0A0319CE0A0130D1004D08D20055
:100634005430D3005C21CD0A0319CE0A0130D10015
:100644004D08D2005030D3005C21CD0A0319CE0AE4
:100654000130D1004D08D2005230D3005C21CD0AC4
:100664000319CE0A0130D1004D08D2005A30D3000C
:0A0674005C21CD0A0319CE0A08002C
:10067E00013083160313D6001A2001308316D100E1
:10068E000130D2004A30D3005C210330FC00973099
:10069E00FD00FD0B502BFC0B502B00000000013019
:1006AE00D1000230D2004C30D3005C210330FC006C
:1006BE009730FD00FD0B612BFC0B612B0000000041
:1006CE000130D1000330D2004830D3005C2103301A
:1006DE00FC009730FD00FD0B722BFC0B722B000003
:1006EE0000000130D1000430D2004430D3005C2130
:1006FE000330FC009730FD00FD0B832BFC0B832B8E
:10070E00000000000130D1000530D2004630D30089
:10071E005C210330FC009730FD00FD0B942BFC0B8D
:10072E00942B000000000130D1000630D20036308C
:10073E00D3005C210330FC009730FD00FD0BA52B90
:10074E00FC0BA52B000000000130D1000730D200B9
:10075E002630D3005C210330FC009730FD00FD0BEA
:10076E00B62BFC0BB62B000000000130D100083078
:10077E00D2002830D3005C210330FC009730FD00FE
:10078E00FD0BC72BFC0BC72B000000000130D10066
:10079E000930D2002430D3005C210330FC009730A6
:1007AE00FD00FD0BD82BFC0BD82B000000000130F8
:1007BE00D1000A30D2002030D3005C210330FC007F
:1007CE009730FD00FD0BE92BFC0BE92B0000000020
:1007DE000130D1000B30D2002230D3005C21033027
:1007EE00FC009730FD00FD0BFA2BFC0BFA2B0000E2
:0407FE0000000800EF
:10080200E83083120313F4000330F50083164D0819
:10081200F0004E08F100BC2070088316C7000230B9
:10082200D1000D30D20030304807D30025212E30C0
:10083200D50078206430F4000030F5004D08F00057
:100842004E08F100BC200A30F4000030F500BC2054
:100852007808F0007908F10070088316C80030307B
:0E0862004707D50078205630D50078200800D2
:1008700083160313871107110712871207138713B3
:100880008312871107118713071387120712062097
:1008900006200620871607168715032087110620D5
:1008A000871503208711062087150320871106204E
:1008B000071287150320871106208715032087114B
:1008C00087128717871503208711062087130716BD
:1008D000871503208711071287150320871106202B
:1008E0008715032087110716871503208711062017
:1008F0000712871503208711871707178716071612
:0E090000871503208711062083164414080073
:10090E00B5208A110A128000840AC90A0319CA0A7C
:08091E00F003031D872C080003
:10092600013083160313D1000130D200AC30D3005E
:100936005C210330FC009730FD00FD0BA02CFC0B66
:10094600A02C000000000130D1000230D200A630F9
:10095600D3005C210330FC009730FD00FD0BB12C69
:10096600FC0BB12C000000000130D1000330D20096
:10097600A830D3005C210330FC009730FD00FD0B4E
:10098600C22CFC0BC22C000000000130D100043048
:10099600D200B230D3005C210330FC009730FD005A
:1009A600FD0BD32CFC0BD32C000000000130D10032
:1009B6000530D200B430D3005C210330FC00973000
:1009C600FD00FD0BE42CFC0BE42C000000000130C4
:1009D600D1000630D200AE30D3005C210330FC00DB
:1009E6009730FD00FD0BF52CFC0BF52C00000000EC
:1009F6000130D1000730D200B030D3005C21033083
:100A0600FC009730FD00FD0B062DFC0B062D0000AB
:100A160000000130D1000830D200A230D3005C21A2
:100A26000330FC009730FD00FD0B172DFC0B172D36
:100A3600000000000130D1000930D2003E30D30062
:100A46005C210330FC009730FD00FD0B282DFC0BCC
:100A5600282D000000000130D1000A30D2004030BD
:100A6600D3005C210330FC009730FD00FD0B392DCF
:100A7600FC0B392D000000000130D1000B30D200F4
:100A86003C30D3005C210330FC009730FD00FD0BA9
:100A96004A2DFC0B4A2D000000000130D1000C301D
:100AA600D2003830D3005C210330FC009730FD00C3
:100AB600FD0B5B2DFC0B5B2D000000000130D1000F
:100AC6000D30D2003A30D3005C210330FC00973061
:100AD600FD00FD0B6C2DFC0B6C2D000000000130A1
:100AE600D1000E30D2004230D3005C210330FC002E
:100AF6009730FD00FD0B7D2DFC0B7D2D00000000C9
:020B06000800E5
:100B0800831203139F01C0309F0483161F179F177A
:100B18004D08F000F00D7010F00D7010F00D701011
:100B2800700883129F041F14AD201F151F1D9E2DD2
:100B380000009A2D1F101E08F100F00183161E08F0
:080B4800F0040030F104080084
:100B50000C3083160313D6001A2002308316D100FE
:100B60000130D200A430D3005C210330FC00973068
:100B7000FD00FD0BB92DFC0BB92D0000000002306B
:100B8000D1000230D200B830D3005C210330FC0029
:100B90009730FD00FD0BCA2DFC0BCA2D0000000094
:100BA0000230D1000330D200B630D3005C210330D4
:100BB000FC009730FD00FD0BDB2DFC0BDB2D000056
:100BC00000000230D1000430D200BA30D3005C21E2
:100BD0000330FC009730FD00FD0BEC2DFC0BEC2DE1
:100BE000000000000230D1000930D200C030D30034
:100BF0005C210330FC009730FD00FD0BFD2DFC0B4C
:100C0000FD2D000000000230D1000A30D200BC30BF
:100C1000D3005C210330FC009730FD00FD0B0E2E4D
:100C2000FC0B0E2E000000000230D1000B30D20071
:100C3000BE30D3005C210330FC009730FD00FD0B7B
:100C40001F2EFC0B1F2E000000000230D1000C30C4
:100C5000D200AA30D3005C210330FC009730FD00A5
:0E0C6000FD0B302EFC0B302E000000000800B3
:100C6E001627013083160313CB000030CC0086010B
:100C7E00FF3085000E309F00382493240C30D600B0
:100C8E001A203330FB00BB30FC00DF30FD00FD0BC3
:100C9E004E2EFC0B4E2EFB0B4E2E000000003F2363
:100CAE009D21A8250130D6001A200C308316D600BF
:100CBE001A20A825CD0184257008C5007108C6002C
:100CCE000130CD0084257008C2007108C3004508AC
:100CDE00CD004608CE005B224208CD004308CE0070
:100CEE0001244B08CD004C08CE009222CB0A0319EA
:100CFE00CC0A0B30FB002630FC005D30FD00FD0BF6
:100D0E00862EFC0B862EFB0B862E000000008030FC
:100D1E00F00080304C067002031D972E4B08113CDC
:100D2E0003189D2E0130CB000030CC00592E9E2E84
:100E2C0020308400503083120313F000A43083165A
:100E3C00C9000630CA008724A030840022308312F7
:100E4C000313F000F4308316C9000630CA0087245F
:020E5C0008008C
:040D480047340034F8
:040D4C0053340034E8
:040D50004D340034EA
:040D540066340034CD
:040D58002E34003401
:040D5C004C340034DF
:040D600069340034BE
:040D64006E340034B5
:040D680064340034BB
:040D6C006F340034AC
:040D700061340034B6
:040D74006F340034A4
:040D7800723400349D
:040D7C0061340034AA
:040D800067340034A0
:040D8400693400349A
:040D88006F34003490
:040D8C006D3400348E
:040D900050340034A7
:040D94007234003481
:040D980020340034CF
:040D9C0042340034A9
:040DA000793400346E
:040DA400673400347C
:040DA800723400346D
:040DAC00613400347A
:040DB0006734003470
:040DB400693400346A
:040DB8006F34003460
:040DBC006D3400345E
:040DC0006434003463
:040DC40020340034A3
:040DC800453400347A
:040DCC00203400349B
:040DD0002E34003489
:040DD4006334003450
:040DD800613400344E
:040DDC007234003439
:040DE0006334003444
:040DE400683400343B
:040DE8006F34003430
:040DEC006434003437
:040DF0004534003452
:040DF4006334003430
:040DF8006834003427
:040DFC003A34003451
:040E00004534003441
:040E04006134003421
:040E0800723400340C
:040E0C006F3400340B
:040E10006334003413
:040E1400473400342B
:040E1800433400342B
:040E1C003A34003430
:040E20005034003416
:040E2400473400341B
:040E2800503400340E
:02400E004A2F37
:00000001FF
