:02000000AF2D22
:06000600000000000800EC
:10000C000F3083120313FC004730FD00FD0B0C284E
:0A001C00FC0B0C2800000000080097
:0E002600213083120313FD00FD0B1728080084
:1000340083160313C21B21288312871323288312D8
:1000440087178316421B2928831207132B28831230
:1000540007178316C21A3128831287123328831292
:1000640087168316421A3928831207123B288312F3
:100074000716831630184128831207154328831264
:1000840007118715032087118316C2194C28831280
:1000940087134E2883128717831642195428831214
:1000A40007135628831207178316C2185C28831275
:1000B40087125E28831287168316421864288312D7
:1000C4000712662883120716831630186C288312C9
:1000D40007156E28831207118715032087118316CD
:0C00E400301C7628062077281320080026
:1000F000710DF80DF90D7408F8027508031C750FE1
:10010000F902F00DF10D0F30FC00710DF80DF90D35
:100110007408701C9128F8027508031C750FF90209
:100120009628F80775080318750FF907F00DF10DFB
:10013000FC0B85287018A2287408F80775080318A6
:08014000750FF907000008002B
:100148008316031330104108C2001A208316301496
:0201580008009D
:10015A000E3083120313FD00FD0BB12800000800C6
:10016A00831203137408003A031DC4287508003A61
:10017A00031DC428FF30F0007F30F1001D298312CF
:10018A000313FD01F901F801710870040319003421
:10019A0071087506FA00FA1BFD09FB01F51FDA283A
:1001AA00F409F509F40A0319F50AF11FE128F0091F
:1001BA00F109F00A0319F10A71087504FA00FA1B29
:1001CA00F62878207B180929FD1F0034F009F10967
:1001DA00F00A0319F10AF809F909F80A0319F90AE0
:1001EA000034F51F0529F11B01297108F90070086F
:1001FA00F800F101F001E928F101F001F00A0034F8
:10020A00F109F009FB0AE628F80A0319F90A740841
:10021A007802031DE92875087902031DE928F90106
:10022A00F801F00A0319F10AF11FE9280000FF3466
:02023A000800BA
:0E023C008316031336088A0035088200080076
:10024A003729803083160313BD004A29C030BD0008
:10025A004A299430BD004A29D430BD004A29803049
:10026A00BD004A29831603133D08013A03192629BA
:10027A003D08023A03192B293D08033A03192E298E
:10028A003D08043A0319312934293E03F0003D0898
:10029A00F0077008BD0030147008C2001A208316D7
:0E02AA0030103F08C2001A20831630140800DE
:1002B8006E29803083160313BD008129C030BD002C
:1002C80081299430BD008129D430BD008129803036
:1002D800BD008129831603133D08013A03195D29DE
:1002E8003D08023A031962293D08033A03196529B2
:1002F8003D08043A031968296B293E03F0003D08BC
:10030800F0077008BD007008C2001A20831630106C
:10031800C00140083F078400000803199B294008D2
:100328003F0784000008C100A420C00A8D293014AA
:020338000800BB
:10033A00E83083120313F4000330F50083163908FA
:10034A00F0003A08F100B52070088316AF000330B8
:10035A00BD000530BE0030302E07BF002521033016
:10036A00BD000630BE004A30BF005C216430F40094
:10037A000030F5003908F0003A08F100B5200A30DB
:10038A00F4000030F500B5207808F0007908F10093
:10039A0070088316AE000330BD000730BE0030304F
:1003AA007007BF0025210330BD000830BE004C3065
:0603BA00BF005C210800F9
:1003C000E83083120313F4000330F5008316390874
:1003D000F0003A08F100B52070088316AE00023034
:1003E000BD000530BE0030307007BF00252102304F
:1003F000BD000630BE005230BF005C216430F40006
:100400000030F5003908F0003A08F100B5200A3054
:10041000F4000030F500B5207808F0007908F1000C
:1004200070088316AE000230BD000730BE003030C9
:100430007007BF0025210230BD000830BE005030DB
:06044000BF005C21080072
:10044600023083160313BD000130BE005830BF00D2
:100456005C210330FC009730FD00FD0B302AFC0BBD
:10046600302A000000000230BD000230BE005430C9
:10047600BF005C210330FC009730FD00FD0B412AD4
:10048600FC0B412A000000000230BD000330BE0014
:100496005630BF005C210330FC009730FD00FD0B99
:1004A600522AFC0B522A000000000230BD00043024
:1004B600BE006430BF005C210330FC009730FD00B5
:1004C600FD0B632AFC0B632A000000000230BD000E
:1004D6000530BE006630BF005C210330FC0097305B
:1004E600FD00FD0B742AFC0B742A0000000002308C
:1004F600BD000630BE006230BF005C210330FC0048
:100506009730FD00FD0B852AFC0B852A00000000B4
:100516000230BD000730BE005E30BF005C210330F4
:10052600FC009730FD00FD0B962AFC0B962A000076
:100536000000B901BA0180303A06F000803070023E
:10054600031DA72A033039020318E02A0830BB002E
:100556000030BC0080303C06F00080307002031D85
:10056600B62A0B303B020318DC2A0C30C2001A20D4
:1005760002308316BD003B08BE006030BF005C2120
:100586000830FB009D30FC000530FD00FD0BC92A3C
:10059600FC0BC92AFB0BC92A000000000230BD0073
:1005A6003B08BE004E30BF005C21BB0A0319BC0AE3
:0C05B600AD2AB90A0319BA0A9E2A0800EF
:1005C200043083160313BD000930BE002630BF007D
:1005D2005C210330FC009730FD00FD0BEE2AFC0B82
:1005E200EE2A000000000430BD000A30BE002830B0
:1005F200BF005C210330FC009730FD00FD0BFF2A99
:10060200FC0BFF2A000000000430BD000B30BE00CE
:100612002430BF005C210330FC009730FD00FD0B4D
:10062200102BFC0B102B000000000430BD000C301E
:10063200BE002030BF005C210330FC009730FD007B
:10064200FD0B212BFC0B212B000000000430BD0010
:100652000D30BE002230BF005C210330FC00973019
:10066200FD00FD0B322BFC0B322B0000000004308E
:10067200BD000E30BE003030BF005C210330FC00F4
:100682009730FD00FD0B432BFC0B432B00000000B9
:100692000430BD000F30BE003230BF005C21033099
:1006A200FC009730FD00FD0B542BFC0B542B00007B
:1006B20000000430BD001030BE002E30BF005C21AF
:1006C2000330FC009730FD00FD0B652BFC0B652B06
:1006D200000000000430BD001130BE002A30BF000F
:1006E2005C210330FC009730FD00FD0B762BFC0BE8
:1006F200762B000000000430BD001230BE002C300A
:10070200BF005C210330FC009730FD00FD0B872BFE
:10071200FC0B872B000000000430BD001330BE002C
:100722005A30BF005C210330FC009730FD00FD0B06
:10073200982BFC0B982B000000000430BD001430F5
:10074200BE005C30BF005C210330FC009730FD002E
:0E075200FD0BA92BFC0BA92B000000000800DA
:10076000831203139F01C0309F0483161F179F1726
:100770003908F000F00D7010F00D7010F00D7010D1
:10078000700883129F041F14AD201F151F1DCA2B54
:100790000000C62B1F101E08F100F00183161E0872
:0807A000F0040030F104080030
:1007A800831603138711071107128712071387137C
:1007B8008312871107118713071387120712062060
:1007C800062006208716071687150320871106209E
:1007D8008715032087110620871503208711062017
:1007E8000712871503208711062087150320871114
:1007F8008712871787150320871106208713071686
:1008080087150320871107128715032087110620F3
:1008180087150320871107168715032087110620DF
:1008280007128715032087118717071787160716DA
:0E083800871503208711062083163014080050
:100846001E218A110A128000840AB50A0319B60A03
:08085600F003031D232C080030
:10085E000C3083160313C2001A2002308316BD001B
:10086E000130BE00A830BF005C210330FC00973081
:10087E00FD00FD0B402CFC0B402C00000000023054
:10088E00BD000230BE00AC30BF005C210330FC0066
:10089E009730FD00FD0B512CFC0B512C000000007D
:1008AE000230BD000330BE00AA30BF005C21033011
:1008BE00FC009730FD00FD0B622CFC0B622C00003F
:1008CE0000000230BD000430BE006E30BF005C215F
:1008DE000330FC009730FD00FD0B732CFC0B732CCA
:1008EE00000000000330BD000130BE006C30BF00C0
:1008FE005C210330FC009730FD00FD0B842CFC0BBB
:10090E00842C000000000330BD000230BE006A30AF
:10091E00BF005C210330FC009730FD00FD0B952CD1
:10092E00FC0B952C000000000330BD000330BE0010
:10093E00A030BF005C210330FC009730FD00FD0BA2
:10094E00A62CFC0BA62C000000000330BD000430CA
:10095E00BE00A630BF005C210330FC009730FD00C6
:0E096E00FD0BB72CFC0BB72C0000000008009E
:10097C00013083160313BD000130BE00A430BF004C
:10098C005C210330FC009730FD00FD0BCB2CFC0BE5
:10099C00CB2C000000000130BD000230BE00A230A4
:1009AC00BF005C210330FC009730FD00FD0BDC2CFC
:1009BC00FC0BDC2C000000000130BD000330BE003D
:1009CC006830BF005C210330FC009730FD00FD0B4C
:1009DC00ED2CFC0BED2C000000000130BD000430B0
:1009EC00BE003C30BF005C210330FC009730FD00A2
:1009FC00FD0BFE2CFC0BFE2C000000000130BD009A
:100A0C000530BE003E30BF005C210330FC00973047
:100A1C00FD00FD0B0F2DFC0B0F2D00000000013015
:100A2C00BD000630BE003A30BF005C210330FC0034
:100A3C009730FD00FD0B202DFC0B202D000000003D
:100A4C000130BD000730BE003630BF005C210330E2
:100A5C00FC009730FD00FD0B312DFC0B312D0000FF
:100A6C0000000130BD000830BE003830BF005C21F2
:100A7C000330FC009730FD00FD0B422DFC0B422D8A
:100A8C00000000000130BD000930BE004630BF0040
:100A9C005C210330FC009730FD00FD0B532DFC0B4B
:100AAC00532D000000000130BD000A30BE0048305C
:100ABC00BF005C210330FC009730FD00FD0B642D62
:100ACC00FC0B642D000000000130BD000B30BE009B
:100ADC004430BF005C210330FC009730FD00FD0B5F
:100AEC00752DFC0B752D000000000130BD000C3085
:100AFC00BE004030BF005C210330FC009730FD008D
:100B0C00FD0B862DFC0B862D000000000130BD0076
:100B1C000D30BE004230BF005C210330FC0097302A
:100B2C00FD00FD0B972DFC0B972D000000000130F4
:100B3C00BD000E30BE003430BF005C210330FC0021
:100B4C009730FD00FD0BA82DFC0BA82D000000001C
:020B5C0008008F
:100B5E006426013083160313B7000030B8008601F7
:100B6E00FF3085000E309F00D423BE240C30C2000F
:100B7E001A20E12223222F24E1220C30C2001A2057
:100B8E008316B901B0237008B1007108B2000130AC
:100B9E00B900B0237008B3007108B4003108B90071
:100BAE003208BA00E0213308B9003408BA009D219A
:100BBE00B70A0319B80A0B30FB002630FC005D3073
:100BCE00FD00FD0BE82DFC0BE82DFB0BE82D0000C6
:100BDE0000008030F000803038067002031DF92DC1
:100BEE003708143C0318FF2D0130B7000030B80051
:040BFE00C42D002ED4
:100CC80020308400503083120313F000063083165E
:100CD800B5000630B6002324A03084000E308312FD
:100CE8000313F00056308316B5000630B6002324EF
:020CF8000800F2
:040C0C00203400345C
:040C10005034003428
:040C140079340034FB
:040C18002D34003443
:040C1C00423400342A
:040C20002E3400343A
:040C24004D34003417
:040C280066340034FA
:040C2C0072340034EA
:040C30006F340034E9
:040C34006D340034E7
:040C380072340034DE
:040C3C0064340034E8
:040C400061340034E7
:040C44006F340034D5
:040C480063340034DD
:040C4C0072340034CA
:040C500061340034D7
:040C540067340034CD
:040C580069340034C7
:040C5C006F340034BD
:040C60002E340034FA
:040C640056340034CE
:040C68002034003400
:040C6C0056340034C6
:040C70002E340034EA
:040C74006F340034A5
:040C780061340034AF
:040C7C004C340034C0
:040C800047340034C1
:040C840053340034B1
:040C88006734003499
:040C8C002E340034CE
:040C90006E3400348A
:040C94006434003490
:040C98006934003487
:040C9C006834003484
:040CA0005034003498
:040CA4005034003494
:040CA8003A340034A6
:040CAC004734003495
:040CB0006334003475
:040CB400453400348F
:040CB8003A34003496
:040CBC004534003487
:040CC0004734003481
:040CC4004334003481
:02400E004A2F37
:00000001FF
