:02000000A02B33
:0C000600000000000000000000000800E6
:10001200243083120313FC00B530FD00FD0B0F28C2
:0A002200FC0B0F280000000008008E
:0E002C00533083120313FD00FD0B1A28080049
:10003A0083120313E61B2328871324288717661BBA
:10004A002828071329280717E61A2D2887122E2889
:10005A008716661A32280712332807165B183728BC
:10006A00071538280711871503208711E6193F2835
:10007A008713402887176619442807134528071746
:10008A00E618492887124A28871666184E28071242
:10009A004F2807165B185328071554280711871588
:1000AA00032087115B1C5B2809205C2816200800A6
:1000BA00710DF80DF90D7408F8027508031C750F17
:1000CA00F902F00DF10D0F30FC00710DF80DF90D6C
:1000DA007408701C7628F8027508031C750FF9025B
:1000EA007B28F80775080318750FF907F00DF10D4D
:1000FA00FC0B6A28701887287408F8077508031813
:08010A00750FF9070000080061
:10011200831203135B106508E6001D205B140800C0
:0E0122008312031357088A0056088200080053
:10013000831203137408003A031DA7287508003AB8
:10014000031DA728FF30F0007F30F1000029831243
:100150000313FD01F901F80171087004031900345B
:1001600071087506FA00FA1BFD09FB01F51FBD2891
:10017000F409F509F40A0319F50AF11FC428F00976
:10018000F109F00A0319F10A71087504FA00FA1B63
:10019000D9285D207B18EC28FD1F0034F009F109F7
:1001A000F00A0319F10AF809F909F80A0319F90A1A
:1001B0000034F51FE828F11BE4287108F9007008E5
:1001C000F800F101F001CC28F101F001F00A00344F
:1001D000F109F009FB0AC928F80A0319F90A740899
:1001E0007802031DCC2875087902031DCC28F9017B
:1001F000F801F00A0319F10AF11FCC280000FF34BE
:020200000800F4
:100202001329803083120313E1002629C030E10054
:1002120026299430E1002629D430E10026298030B5
:10022200E1002629831203136108013A0319022906
:100232006108023A031907296108033A03190A29D6
:100242006108043A03190D2910296203F0006108BC
:10025200F0077008E1005B147008E6001D205B10D7
:0A0262006308E6001D205B1408008D
:10026C004829803083120313E1005B29C030E10080
:10027C005B299430E1005B29D430E1005B298030AC
:10028C00E1005B29831203136108013A0319372932
:10029C006108023A03193C296108033A03193F2902
:1002AC006108043A0319422945296203F0006108E8
:1002BC00F0077008E1007008E6001D205B10E401F7
:1002CC006408630784000008031974296408630731
:1002DC0084000008E5008920E40A66295B14080004
:1002EC00243083120313FD00FD0B7A290000080053
:1002FC00E83083120313F4000330F5005F08F000BC
:10030C006008F10098207008DC009430E6001D2095
:10031C0030305C07E50089202E30E5008920643000
:10032C00F4000030F5005F08F0006008F100982040
:10033C000A30F4000030F50098207808F0007908B5
:10034C00F1007008D80030305C07E50089200A30D5
:10035C00F4000030F5005F08F0006008F100982010
:10036C000A30F4000030F50098207808F000790885
:10037C00F1007008DC0030307007E50089200A308D
:10038C00F4000030F5005F08F0006008F1009820E0
:10039C007808F0007908F1007008DC003030700744
:0C03AC00E50089205630E500892008009B
:1003B80083120313E00160085F0784000008031933
:1003C800ED2960085F0784000008E5008920E00A3D
:0403D800DF29080011
:1003DC00831203139F01C0309F0483161F179F17AE
:1003EC0083125F08F000F00D7010F00D7010F00D1E
:1003FC00701070089F041F1476211F151F1D082AEA
:10040C000000042A1F101E08F100F00183161E08BC
:08041C00F0040030F1040800B7
:10042400013083120313E1000130E2002C30E300B9
:1004340036210730FC007D30FD00FD0B1F2AFC0B2C
:100444001F2A0130E1000230E2002430E3003621AB
:100454000730FC007D30FD00FD0B2E2AFC0B2E2AFC
:100464000130E1000330E2002230E300362107309E
:10047400FC007D30FD00FD0B3D2AFC0B3D2A0130C4
:10048400E1000430E2002030E30036210730FC00B4
:100494007D30FD00FD0B4C2AFC0B4C2A0130E100A1
:1004A4000530E2002A30E30036210730FC007D30BD
:1004B400FD00FD0B5B2AFC0B5B2A0130E1000630DA
:1004C400E2002830E30036210730FC007D30FD00D7
:1004D400FD0B6A2AFC0B6A2A0130E1000730E200B6
:1004E4002630E30036210730FC007D30FD00FD0B93
:1004F400792AFC0B792A0130E1000830E2002E3021
:10050400E30036210730FC007D30FD00FD0B882A16
:10051400FC0B882A0130E1000930E2004E30E30090
:1005240036210730FC007D30FD00FD0B972AFC0BC3
:10053400972A0130E1000930E2004C30E300362113
:100544000730FC007D30FD00FD0BA62AFC0BA62A1B
:100554000130E1000A30E2004A30E300362107307E
:10056400FC007D30FD00FD0BB52AFC0BB52A0130E3
:10057400E1000B30E2005430E30036210730FC0088
:100584007D30FD00FD0BC42AFC0BC42A0130E100C0
:100594000C30E2005230E30036210730FC007D309D
:1005A400FD00FD0BD32AFC0BD32A0130E1000D30F2
:1005B400E2005030E30036210730FC007D30FD00BE
:0A05C400FD0BE22AFC0BE22A0800FE
:1005CE008316031387110711071287120713871358
:1005DE008312871107118713071387120712092039
:1005EE000920092087160716871503208711092071
:1005FE0087150320871109208715032087110920ED
:10060E0007128715032087110920871503208711EC
:10061E00871287178715032087110920871307165E
:10062E0087150320871107128715032087110920CC
:10063E0087150320871107168715032087110920B8
:10064E0007128715032087118717071787160716B6
:0C065E0087150320871109205B14080099
:10066A0091208A110A128000840AD60A0319D70A2D
:08067A00F003031D352B0800FD
:10068200E83083120313F4000330F5005F08F00032
:100692006008F10098207008D8000230E1000530AF
:1006A200E20030307007E30001212E30E50089209E
:1006B2006430F4000030F5005F08F0006008F100DB
:1006C20098200A30F4000030F50098207808F000F5
:1006D2007908F1007008D80030307007E5008920F1
:1006E2000A30F4000030F5005F08F0006008F10005
:1006F20098200A30F4000030F50098207808F000C5
:100702007908F1007008D80030307007E5008920C0
:100712000A30F4000030F5005F08F0006008F100D4
:1007220098207808F0007908F1007008D80030307D
:0E0732007007E50089205630E5008920080098
:100740001E24831603138601FF3085000E309F00A0
:10075000E72212220230E1000130E2004530E300DE
:1007600036219030E6001D204030DF00DC21D03003
:10077000E6001D203030DF00DC210C30E6001D20BB
:10078000DF01EE2170088312D9007108DA00013010
:10079000DF00EE2170088312DD007108DE005908C9
:1007A000DF005A08E00041235D08DF005E08E0003A
:1007B0007E210730FC007D30FD00FD0BDD2BFC0BA6
:0607C000DD2BBD2BE22B36
:10083C0020308400363083120313F000E830D600E9
:08084C000330D700352308003A
:0407D0006F3400344E
:0407D4006834003451
:0407D8006334003452
:0407DC00723400343F
:0407E000613400344C
:0407E4006334003446
:0407E8004534003460
:0407EC00643400343D
:1007F0004F347034743469346F346E34733420344D
:1008000044346934733470346C3461347934003472
:0A0810005034503447343A340034B9
:0A081A004534433447343A340034C7
:040824006734003401
:040828006F340034F5
:04082C0069340034F7
:040830006D340034EF
:0408340061340034F7
:0408380072340034E2
:02400E007A3BFB
:00000001FF
