:02000000382A9C
:0E000600533083120313FD00FD0B0728080082
:0C001400000000000000000000000800D8
:10002000243083120313FC00B530FD00FD0B1628AD
:0A003000FC0B162800000000080079
:10003A0083120313DD1B23288713242887175D1BCC
:10004A002828071329280717DD1A2D2887122E2892
:10005A0087165D1A32280712332807163B183728E5
:10006A0007153828071187150A208711DD193F2837
:10007A008713402887175D1944280713452807174F
:10008A00DD18492887124A2887165D184E28071254
:10009A004F2807163B1853280715542807118715A8
:1000AA000A2087113B1C5B2810205C2803200800CB
:1000BA00831203133B105C08DD001D203B1408006B
:1000CA007728803083120313D8008A28C030D800DA
:1000DA008A289430D8008A28D430D8008A288030D8
:1000EA00D8008A28831203135808013A031966288C
:1000FA005808023A03196B285808033A03196E285C
:10010A005808043A0319712874285903F00058084A
:10011A00F0077008D8007008DD001D203B10DB01D5
:10012A005B085A07840000080319A3285B085A07CA
:10013A0084000008DC005D20DB0A95283B140800D7
:0E014A00831203133D088A003C08820008005F
:1001580083160313871107110712871207138713D2
:1001680083128711071187130713871207121020AC
:10017800102010208716071687150A2087111020CF
:1001880087150A208711102087150A20871110204B
:10019800071287150A208711102087150A20871152
:1001A8008712871787150A208711102087130716CB
:1001B80087150A208711071287150A208711102032
:1001C80087150A208711071687150A20871110201E
:1001D800071287150A20871187170717871607162A
:0C01E80087150A20871110203B14080026
:1001F400013083120313D6000030D7008030570635
:10020400F00080307002031D0929113056020318D2
:1002140016295408D8005608D9002030DA00652081
:0A022400D60A0319D70A00290800C2
:10022E002929803083120313D4003C29C030D40016
:10023E003C299430D4003C29D430D4003C29803061
:10024E00D4003C29831203135408013A03191829C8
:10025E005408023A03191D295408033A0319202998
:10026E005408043A0319232926295503F00054088B
:10027E00F0077008D4003B147008DD001D203B1001
:0A028E005608DD001D203B14080097
:1002980083120313D001D1010130D2000030D30002
:1002A8000130D4000030D500FA200230D4000030EC
:1002B800D500FA200130D8000130D9002C30DA00FE
:1002C8006520D001D10180305106F00080307002E5
:1002D800031D7029083050020318A8295008F0009F
:1002E8005108F100F00DF10D701070083E3E8400C9
:1002F8000008F100840A0008F20000307206031DAD
:10030800872900307106031DA42931305007F000F9
:1003180051080318013EF1000230D4005208D500FC
:100328007008D6001721D20A0319D30A0230D80060
:100338005208D9002230DA006520D20A0319D30AFC
:0A034800D00A0319D10A6729080042
:1003520083120313F501F6010730F7000030F800AD
:1003620080307606F00080307002031DBA29083012
:1003720075020318F9297708F0007808F100F00DEA
:10038200F10D701070083E3E84007508F2003908C5
:10039200F0003A08F10072080319D629F10CF00CAA
:1003A200F113711BF117FF3ECD2970085005F300C0
:1003B20051087105F4007708F2007308F000740820
:1003C200F10072080319EC29F10CF00CF113711B06
:1003D200F117FF3EE329700880007108840A80004B
:1003E2000130F702031CF803F50A0319F60AB129D2
:0203F200080001
:1003F400A5208A110A128000840ABC0A0319BD0AC6
:08040400F003031DFA290800B2
:10040C0083120313D001D101FF3083168600081428
:10041C00AC200C30DD001D200130D8000130D9009B
:10042C002430DA006520D001D10180305106F00073
:10043C0080307002031D242A083050020318372A1A
:10044C005008F0005108F100F00DF10D701070081B
:10045C003E3E84008001840A8001D00A0319D10A2F
:04046C001B2A08003F
:10047000203083120313A000A1012C30A200A3019D
:100480005730A4006530A5006C30A6006330A7008B
:100490006F30A8006D30A9006530AA00AB01533061
:1004A000AC006C30AD006F30AE007430AF00733014
:1004B000B0002030B1004630B2007230B300653079
:1004C000B4006530B5002030B6003A30B700B8014E
:1004D0008030B900BA01CE01CF01062200304F06AC
:1004E000031D742A4E0806060319832A0230D4001D
:1004F0000030D500FA200608D000D101A9214C21F6
:0A0500000608CE00CF016E2A842AFF
:02400E004A2F37
:00000001FF
