:02000000952A3F
:0C000600000000000000000000000800E6
:0E001200533083120313FD00FD0B0D28080070
:10002000243083120313FC00B530FD00FD0B1628AD
:0A003000FC0B162800000000080079
:10003A0083120313CE1B23288713242887174E1BEA
:10004A002828071329280717CE1A2D2887122E28A1
:10005A0087164E1A32280712332807163D183728F2
:10006A00071538280711871503208711CE193F284D
:10007A008713402887174E1944280713452807175E
:10008A00CE18492887124A2887164E184E28071272
:10009A004F2807163D1853280715542807118715A6
:1000AA00032087113D1C5B2810205C2809200800CA
:1000BA00831203133D104D08CE001D203D14080085
:1000CA0083120313F801F9011030FC00710DF80DC9
:1000DA00F90D7408F8027508031C750FF902031864
:1000EA007D287408F80775080318750FF9070310B7
:0A00FA00F00DF10DFC0B6B2808005F
:1001040083120313CB0105304B02031890284B08CC
:100114004A07840020308000CB0A85284B084A0710
:1001240084008001CB034B084A07CC000A30F4005A
:10013400F5014808F0004908F10065207808F0004E
:100144007908F1003030F0074C0884007008800012
:100154000A30F400F5014808F0004908F100652070
:100164007008C8007108C90000307106031DBC285E
:1001740000307006031DBF28C128CB039528080052
:10018400D428803083120313C800E728C030C80085
:10019400E7289430C800E728D430C800E728803026
:1001A400C800E728831203134808013A0319C32837
:1001B4004808023A0319C8284808033A0319CB2807
:1001C4004808043A0319CE28D1284903F000480806
:1001D400F0077008C8007008CE001D203D10CB0148
:1001E4004B084A0784000008031900294B084A07F2
:1001F40084000008CD005D20CB0AF2283D140800DD
:1002040083120313C00140083F0784000008031948
:10021400132940083F0784000008CD005D20C00A70
:0402240005290800A0
:1002280083120313C401C5013F08C6004008C70074
:1002380080304006F00080307002031D2529003010
:100248003F02031833290130C4000030C5003F08BD
:10025800003CC6004008031C013EC701C70246080F
:10026800C8004708C9004108CA0082200630C200F9
:100278000030C3004308003C031D44294208003CE9
:1002880003185F2942084107F20001304202F000DA
:100298000030031C013E4302F1007008410784004E
:1002A8000008F00072088400700880000130C20263
:1002B800031CC3033E294108840020308000440801
:1002C800450403197D29C201C3014208410784007E
:1002D8000008203A031D7429C20A0319C30A6929B0
:1002E8000130C202031CC3034208410784002D30B9
:0402F800800008007A
:0E02FC00831203133C088A003B0882000800AE
:10030A0083120313C001C1013F08F2003F08F30042
:10031A00720884000008203A031D98294008410405
:10032A00031D9829A5290130C0000030C1007208B8
:10033A0084000008F0007308840070088000F30A43
:10034A007208F100F20A710884000008003A031DDD
:08035A008D293F08F0000800A6
:1003620083120313C101C20180304206F0008030C3
:100372007002031DBE29153041020318CB293F0824
:10038200C8004108C9002230CA00C220C10A0319AC
:06039200C20AB5290800B3
:10039800023083120313BF000030C000B121643063
:1003A8002002F0000030031C013E2102F100700819
:1003B800A0007108A1007008BF007108C0003030AB
:1003C800C10014213030BF0085217008BE00023002
:1003D800C8000130C9007008CA00C2202430BF001C
:1003E80002210430FB00CF30FC000130FD00FD0B82
:1003F800FB29FC0BFB29FB0BFB2900000000080074
:10040800023083120313BF000030C000B1216430F2
:100418002007F00021080318013EF1007008A00031
:100428007108A1007008BF007108C0003030C10019
:1004380014213030BF0085217008BE000230C8008A
:100448000130C9007008CA00C2203830BF0002213C
:100458000430FB00CF30FC000130FD00FD0B322AD8
:0E046800FC0B322AFB0B322A000000000800B9
:100476007E218A110A128000840ABB0A0319BC0A6B
:08048600F003031D3B2A0800EE
:10048E008316031387110711071287120713871399
:10049E008312871107118713071387120712102073
:1004AE00102010208716071687150320871110209D
:1004BE008715032087111020871503208711102020
:1004CE000712871503208711102087150320871127
:1004DE008712871787150320871110208713071699
:1004EE008715032087110712871503208711102007
:1004FE0087150320871107168715032087111020F3
:10050E0007128715032087118717071787160716F7
:0C051E0087150320871110203D140800F1
:10052A00E83083120313A0000330A1002030A20098
:10053A00A3014830A4007A30A500A6014B30A700D9
:10054A006530A8007930A9002030AA005430AB00E9
:10055A006530AC007330AD007430AE00AF0130309E
:10056A00B0003030B1003030B2003030B30030303B
:10057A00B4003030B5003030B600B7014830B800AA
:10058A007A30B900BA01FF3083168600472201305B
:10059A00CE001D203330FB00BB30FC00DF30FD00F5
:1005AA00FD0BD52AFC0BD52AFB0BD52A000000002F
:1005BA000C30CE001D200130C8000130C9002730A0
:1005CA00CA00C2200230C8000130C9003030CA0057
:1005DA00C220061FF22A0422F52A861FF52ACC21F8
:0405EA00EE2AF62AD5
:02400E004A2F37
:00000001FF
