:02000000842951
:0C000600000000000000000000000800E6
:0E001200533083120313FD00FD0B0D28080070
:10002000243083120313FC00B530FD00FD0B1628AD
:0A003000FC0B162800000000080079
:10003A0083120313BF1B23288713242887173F1B08
:10004A002828071329280717BF1A2D2887122E28B0
:10005A0087163F1A3228071233280716321837280C
:10006A00071538280711871503208711BF193F285C
:10007A008713402887173F1944280713452807176D
:10008A00BF18492887124A2887163F184E28071290
:10009A004F280716321853280715542807118715B1
:1000AA0003208711321C5B2810205C2809200800D5
:0E00BA008312031334088A0033088200080002
:1000C8008312031332103E08BF001D2032140800AB
:1000D800243083120313FD00FD0B70280000080074
:1000E8008628803083120313BA009928C030BA00DA
:1000F80099289430BA009928D430BA0099288030C9
:10010800BA009928831203133A08013A031975288B
:100118003A08023A03197A283A08033A03197D285B
:100128003A08043A0319802883283B03F0003A0868
:10013800F0077008BA0032147008BF001D20321092
:0A0148003C08BF001D20321408001F
:10015200831203139F01C0309F0483161F179F173A
:1001620083123A08F000F00D7010F00D7010F00DCF
:10017200701070089F041F146C201F151F1DC328C8
:100182000000BF281F101E08F100F00183161E0890
:08019200F0040030F104080044
:10019A0083120313F801F9011030FC00710DF80DF8
:1001AA00F90D7408F8027508031C750FF902031893
:1001BA00E5287408F80775080318750FF90703107E
:0A01CA00F00DF10DFC0BD328080026
:1001D4005D208A110A128000840AB30A0319B40A42
:0801E400F003031DEA280800E6
:1001EC00831603138711071107128712071387133E
:1001FC008312871107118713071387120712102018
:10020C001020102087160716871503208711102041
:10021C0087150320871110208715032087111020C4
:10022C0007128715032087111020871503208711CB
:10023C00871287178715032087111020871307163D
:10024C0087150320871107128715032087111020AB
:10025C008715032087110716871503208711102097
:10026C00071287150320871187170717871607169C
:0C027C00871503208711102032140800A1
:100288005629803083120313BA006929C030BA0096
:1002980069299430BA006929D430BA0069298030B4
:1002A800BA006929831203133A08013A0319452948
:1002B8003A08023A03194A293A08033A03194D2918
:1002C8003A08043A0319502953293B03F0003A0825
:1002D800F0077008BA007008BF001D203210BD0179
:1002E8003D083C0784000008031982293D083C07A3
:1002F80084000008BE006420BD0A74293214080076
:100308002D3083120313A0004430A1005630A20000
:100318004D30A3002030A4005030A5007230A60054
:100328006F30A7006A30A8006530A9006330AA00C2
:100338007430AB00AC013030AD003030AE002E3040
:10034800AF003030B000B10108309F0083169F0124
:1003580087010C308500F6200130BF001D200C30CD
:10036800BF001D200130BA000130BB002130BC00A5
:1003780044210230BA000A30BB005630BC00742059
:100388000230BA00A92070088312B7007108B800BB
:100398007008F2007108F300F30CF20CF313720802
:1003A800B5007308B6002008B9007208F000730899
:1003B800F100E830F4000330F500CD203030F007CC
:1003C8003908840070088000200AB9006430F400FD
:1003D8000030F5003508F0003608F100CD200A306D
:1003E800F4000030F500CD207808F0007908F1001D
:1003F8003030F00739088400700880000330200787
:10040800B9000A30F4000030F5003508F00036086D
:10041800F100CD200A30F4000030F500CD20780836
:10042800F0007908F1003030F007390884007008CE
:1004380080000230BA000530BB002008BC0044210F
:100448000330FB008A30FC005530FD00FD0B2A2AE2
:10045800FC0B2A2AFB0B2A2A00000000C429332A95
:02400E004A2F37
:00000001FF
